{
  "contractName": "Simple1155NFT",
  "abi": [
    {
      "inputs": [],
      "stateMutability": "nonpayable",
      "type": "constructor"
    },
    {
      "anonymous": false,
      "inputs": [
        {
          "indexed": true,
          "internalType": "address",
          "name": "account",
          "type": "address"
        },
        {
          "indexed": true,
          "internalType": "address",
          "name": "operator",
          "type": "address"
        },
        {
          "indexed": false,
          "internalType": "bool",
          "name": "approved",
          "type": "bool"
        }
      ],
      "name": "ApprovalForAll",
      "type": "event"
    },
    {
      "anonymous": false,
      "inputs": [
        {
          "indexed": true,
          "internalType": "address",
          "name": "previousOwner",
          "type": "address"
        },
        {
          "indexed": true,
          "internalType": "address",
          "name": "newOwner",
          "type": "address"
        }
      ],
      "name": "OwnershipTransferred",
      "type": "event"
    },
    {
      "anonymous": false,
      "inputs": [
        {
          "indexed": true,
          "internalType": "address",
          "name": "operator",
          "type": "address"
        },
        {
          "indexed": true,
          "internalType": "address",
          "name": "from",
          "type": "address"
        },
        {
          "indexed": true,
          "internalType": "address",
          "name": "to",
          "type": "address"
        },
        {
          "indexed": false,
          "internalType": "uint256[]",
          "name": "ids",
          "type": "uint256[]"
        },
        {
          "indexed": false,
          "internalType": "uint256[]",
          "name": "values",
          "type": "uint256[]"
        }
      ],
      "name": "TransferBatch",
      "type": "event"
    },
    {
      "anonymous": false,
      "inputs": [
        {
          "indexed": true,
          "internalType": "address",
          "name": "operator",
          "type": "address"
        },
        {
          "indexed": true,
          "internalType": "address",
          "name": "from",
          "type": "address"
        },
        {
          "indexed": true,
          "internalType": "address",
          "name": "to",
          "type": "address"
        },
        {
          "indexed": false,
          "internalType": "uint256",
          "name": "id",
          "type": "uint256"
        },
        {
          "indexed": false,
          "internalType": "uint256",
          "name": "value",
          "type": "uint256"
        }
      ],
      "name": "TransferSingle",
      "type": "event"
    },
    {
      "anonymous": false,
      "inputs": [
        {
          "indexed": false,
          "internalType": "string",
          "name": "value",
          "type": "string"
        },
        {
          "indexed": true,
          "internalType": "uint256",
          "name": "id",
          "type": "uint256"
        }
      ],
      "name": "URI",
      "type": "event"
    },
    {
      "inputs": [
        {
          "internalType": "address",
          "name": "account",
          "type": "address"
        },
        {
          "internalType": "uint256",
          "name": "id",
          "type": "uint256"
        }
      ],
      "name": "balanceOf",
      "outputs": [
        {
          "internalType": "uint256",
          "name": "",
          "type": "uint256"
        }
      ],
      "stateMutability": "view",
      "type": "function"
    },
    {
      "inputs": [
        {
          "internalType": "address[]",
          "name": "accounts",
          "type": "address[]"
        },
        {
          "internalType": "uint256[]",
          "name": "ids",
          "type": "uint256[]"
        }
      ],
      "name": "balanceOfBatch",
      "outputs": [
        {
          "internalType": "uint256[]",
          "name": "",
          "type": "uint256[]"
        }
      ],
      "stateMutability": "view",
      "type": "function"
    },
    {
      "inputs": [
        {
          "internalType": "address",
          "name": "account",
          "type": "address"
        },
        {
          "internalType": "address",
          "name": "operator",
          "type": "address"
        }
      ],
      "name": "isApprovedForAll",
      "outputs": [
        {
          "internalType": "bool",
          "name": "",
          "type": "bool"
        }
      ],
      "stateMutability": "view",
      "type": "function"
    },
    {
      "inputs": [],
      "name": "owner",
      "outputs": [
        {
          "internalType": "address",
          "name": "",
          "type": "address"
        }
      ],
      "stateMutability": "view",
      "type": "function"
    },
    {
      "inputs": [],
      "name": "renounceOwnership",
      "outputs": [],
      "stateMutability": "nonpayable",
      "type": "function"
    },
    {
      "inputs": [
        {
          "internalType": "address",
          "name": "from",
          "type": "address"
        },
        {
          "internalType": "address",
          "name": "to",
          "type": "address"
        },
        {
          "internalType": "uint256[]",
          "name": "ids",
          "type": "uint256[]"
        },
        {
          "internalType": "uint256[]",
          "name": "amounts",
          "type": "uint256[]"
        },
        {
          "internalType": "bytes",
          "name": "data",
          "type": "bytes"
        }
      ],
      "name": "safeBatchTransferFrom",
      "outputs": [],
      "stateMutability": "nonpayable",
      "type": "function"
    },
    {
      "inputs": [
        {
          "internalType": "address",
          "name": "from",
          "type": "address"
        },
        {
          "internalType": "address",
          "name": "to",
          "type": "address"
        },
        {
          "internalType": "uint256",
          "name": "id",
          "type": "uint256"
        },
        {
          "internalType": "uint256",
          "name": "amount",
          "type": "uint256"
        },
        {
          "internalType": "bytes",
          "name": "data",
          "type": "bytes"
        }
      ],
      "name": "safeTransferFrom",
      "outputs": [],
      "stateMutability": "nonpayable",
      "type": "function"
    },
    {
      "inputs": [
        {
          "internalType": "address",
          "name": "operator",
          "type": "address"
        },
        {
          "internalType": "bool",
          "name": "approved",
          "type": "bool"
        }
      ],
      "name": "setApprovalForAll",
      "outputs": [],
      "stateMutability": "nonpayable",
      "type": "function"
    },
    {
      "inputs": [
        {
          "internalType": "bytes4",
          "name": "interfaceId",
          "type": "bytes4"
        }
      ],
      "name": "supportsInterface",
      "outputs": [
        {
          "internalType": "bool",
          "name": "",
          "type": "bool"
        }
      ],
      "stateMutability": "view",
      "type": "function"
    },
    {
      "inputs": [
        {
          "internalType": "address",
          "name": "newOwner",
          "type": "address"
        }
      ],
      "name": "transferOwnership",
      "outputs": [],
      "stateMutability": "nonpayable",
      "type": "function"
    },
    {
      "inputs": [
        {
          "internalType": "uint256",
          "name": "",
          "type": "uint256"
        }
      ],
      "name": "uri",
      "outputs": [
        {
          "internalType": "string",
          "name": "",
          "type": "string"
        }
      ],
      "stateMutability": "view",
      "type": "function"
    },
    {
      "inputs": [
        {
          "internalType": "uint256",
          "name": "id",
          "type": "uint256"
        },
        {
          "internalType": "uint256",
          "name": "amount",
          "type": "uint256"
        }
      ],
      "name": "mint",
      "outputs": [],
      "stateMutability": "nonpayable",
      "type": "function"
    }
  ],
  "bytecode": "0x608060405260006004553480156200001657600080fd5b50604051806060016040528060228152602001620030cb6022913962000042816200006960201b60201c565b5062000063620000576200007e60201b60201c565b6200008660201b60201c565b620004ad565b80600290816200007a9190620003c6565b5050565b600033905090565b6000600360009054906101000a900473ffffffffffffffffffffffffffffffffffffffff16905081600360006101000a81548173ffffffffffffffffffffffffffffffffffffffff021916908373ffffffffffffffffffffffffffffffffffffffff1602179055508173ffffffffffffffffffffffffffffffffffffffff168173ffffffffffffffffffffffffffffffffffffffff167f8be0079c531659141344cd1fd0a4f28419497f9722a3daafe3b4186f6b6457e060405160405180910390a35050565b600081519050919050565b7f4e487b7100000000000000000000000000000000000000000000000000000000600052604160045260246000fd5b7f4e487b7100000000000000000000000000000000000000000000000000000000600052602260045260246000fd5b60006002820490506001821680620001ce57607f821691505b602082108103620001e457620001e362000186565b5b50919050565b60008190508160005260206000209050919050565b60006020601f8301049050919050565b600082821b905092915050565b6000600883026200024e7fffffffffffffffffffffffffffffffffffffffffffffffffffffffffffffffff826200020f565b6200025a86836200020f565b95508019841693508086168417925050509392505050565b6000819050919050565b6000819050919050565b6000620002a7620002a16200029b8462000272565b6200027c565b62000272565b9050919050565b6000819050919050565b620002c38362000286565b620002db620002d282620002ae565b8484546200021c565b825550505050565b600090565b620002f2620002e3565b620002ff818484620002b8565b505050565b5b8181101562000327576200031b600082620002e8565b60018101905062000305565b5050565b601f82111562000376576200034081620001ea565b6200034b84620001ff565b810160208510156200035b578190505b620003736200036a85620001ff565b83018262000304565b50505b505050565b600082821c905092915050565b60006200039b600019846008026200037b565b1980831691505092915050565b6000620003b6838362000388565b9150826002028217905092915050565b620003d1826200014c565b67ffffffffffffffff811115620003ed57620003ec62000157565b5b620003f98254620001b5565b620004068282856200032b565b600060209050601f8311600181146200043e576000841562000429578287015190505b620004358582620003a8565b865550620004a5565b601f1984166200044e86620001ea565b60005b82811015620004785784890151825560018201915060208501945060208101905062000451565b8683101562000498578489015162000494601f89168262000388565b8355505b6001600288020188555050505b505050505050565b612c0e80620004bd6000396000f3fe608060405234801561001057600080fd5b50600436106100b35760003560e01c8063715018a611610071578063715018a6146101b05780638da5cb5b146101ba578063a22cb465146101d8578063e985e9c5146101f4578063f242432a14610224578063f2fde38b14610240576100b3565b8062fdd58e146100b857806301ffc9a7146100e85780630e89341c146101185780631b2ef1ca146101485780632eb2c2d6146101645780634e1273f414610180575b600080fd5b6100d260048036038101906100cd919061181d565b61025c565b6040516100df919061186c565b60405180910390f35b61010260048036038101906100fd91906118df565b610324565b60405161010f9190611927565b60405180910390f35b610132600480360381019061012d9190611942565b610406565b60405161013f91906119ff565b60405180910390f35b610162600480360381019061015d9190611a21565b61049a565b005b61017e60048036038101906101799190611c5e565b6104b9565b005b61019a60048036038101906101959190611df0565b61055a565b6040516101a79190611f26565b60405180910390f35b6101b8610673565b005b6101c26106fb565b6040516101cf9190611f57565b60405180910390f35b6101f260048036038101906101ed9190611f9e565b610725565b005b61020e60048036038101906102099190611fde565b6108a5565b60405161021b9190611927565b60405180910390f35b61023e6004803603810190610239919061201e565b610939565b005b61025a600480360381019061025591906120b5565b6109da565b005b60008073ffffffffffffffffffffffffffffffffffffffff168373ffffffffffffffffffffffffffffffffffffffff16036102cc576040517f08c379a00000000000000000000000000000000000000000000000000000000081526004016102c390612154565b60405180910390fd5b60008083815260200190815260200160002060008473ffffffffffffffffffffffffffffffffffffffff1673ffffffffffffffffffffffffffffffffffffffff16815260200190815260200160002054905092915050565b60007fd9b67a26000000000000000000000000000000000000000000000000000000007bffffffffffffffffffffffffffffffffffffffffffffffffffffffff1916827bffffffffffffffffffffffffffffffffffffffffffffffffffffffff191614806103ef57507f0e89341c000000000000000000000000000000000000000000000000000000007bffffffffffffffffffffffffffffffffffffffffffffffffffffffff1916827bffffffffffffffffffffffffffffffffffffffffffffffffffffffff1916145b806103ff57506103fe82610ad1565b5b9050919050565b606060028054610415906121a3565b80601f0160208091040260200160405190810160405280929190818152602001828054610441906121a3565b801561048e5780601f106104635761010080835404028352916020019161048e565b820191906000526020600020905b81548152906001019060200180831161047157829003601f168201915b50505050509050919050565b6104b533838360405180602001604052806000815250610b3b565b5050565b6104c1610cd0565b73ffffffffffffffffffffffffffffffffffffffff168573ffffffffffffffffffffffffffffffffffffffff161480610507575061050685610501610cd0565b6108a5565b5b610546576040517f08c379a000000000000000000000000000000000000000000000000000000000815260040161053d90612246565b60405180910390fd5b6105538585858585610cd8565b5050505050565b606081518351146105a0576040517f08c379a0000000000000000000000000000000000000000000000000000000008152600401610597906122d8565b60405180910390fd5b6000835167ffffffffffffffff8111156105bd576105bc611a66565b5b6040519080825280602002602001820160405280156105eb5781602001602082028036833780820191505090505b50905060005b8451811015610668576106388582815181106106105761060f6122f8565b5b602002602001015185838151811061062b5761062a6122f8565b5b602002602001015161025c565b82828151811061064b5761064a6122f8565b5b6020026020010181815250508061066190612356565b90506105f1565b508091505092915050565b61067b610cd0565b73ffffffffffffffffffffffffffffffffffffffff166106996106fb565b73ffffffffffffffffffffffffffffffffffffffff16146106ef576040517f08c379a00000000000000000000000000000000000000000000000000000000081526004016106e6906123ea565b60405180910390fd5b6106f96000610feb565b565b6000600360009054906101000a900473ffffffffffffffffffffffffffffffffffffffff16905090565b8173ffffffffffffffffffffffffffffffffffffffff16610744610cd0565b73ffffffffffffffffffffffffffffffffffffffff160361079a576040517f08c379a00000000000000000000000000000000000000000000000000000000081526004016107919061247c565b60405180910390fd5b80600160006107a7610cd0565b73ffffffffffffffffffffffffffffffffffffffff1673ffffffffffffffffffffffffffffffffffffffff16815260200190815260200160002060008473ffffffffffffffffffffffffffffffffffffffff1673ffffffffffffffffffffffffffffffffffffffff16815260200190815260200160002060006101000a81548160ff0219169083151502179055508173ffffffffffffffffffffffffffffffffffffffff16610854610cd0565b73ffffffffffffffffffffffffffffffffffffffff167f17307eab39ab6107e8899845ad3d59bd9653f200f220920489ca2b5937696c31836040516108999190611927565b60405180910390a35050565b6000600160008473ffffffffffffffffffffffffffffffffffffffff1673ffffffffffffffffffffffffffffffffffffffff16815260200190815260200160002060008373ffffffffffffffffffffffffffffffffffffffff1673ffffffffffffffffffffffffffffffffffffffff16815260200190815260200160002060009054906101000a900460ff16905092915050565b610941610cd0565b73ffffffffffffffffffffffffffffffffffffffff168573ffffffffffffffffffffffffffffffffffffffff161480610987575061098685610981610cd0565b6108a5565b5b6109c6576040517f08c379a00000000000000000000000000000000000000000000000000000000081526004016109bd9061250e565b60405180910390fd5b6109d385858585856110b1565b5050505050565b6109e2610cd0565b73ffffffffffffffffffffffffffffffffffffffff16610a006106fb565b73ffffffffffffffffffffffffffffffffffffffff1614610a56576040517f08c379a0000000000000000000000000000000000000000000000000000000008152600401610a4d906123ea565b60405180910390fd5b600073ffffffffffffffffffffffffffffffffffffffff168173ffffffffffffffffffffffffffffffffffffffff1603610ac5576040517f08c379a0000000000000000000000000000000000000000000000000000000008152600401610abc906125a0565b60405180910390fd5b610ace81610feb565b50565b60007f01ffc9a7000000000000000000000000000000000000000000000000000000007bffffffffffffffffffffffffffffffffffffffffffffffffffffffff1916827bffffffffffffffffffffffffffffffffffffffffffffffffffffffff1916149050919050565b600073ffffffffffffffffffffffffffffffffffffffff168473ffffffffffffffffffffffffffffffffffffffff1603610baa576040517f08c379a0000000000000000000000000000000000000000000000000000000008152600401610ba190612632565b60405180910390fd5b6000610bb4610cd0565b9050610bd581600087610bc688611332565b610bcf88611332565b876113ac565b8260008086815260200190815260200160002060008773ffffffffffffffffffffffffffffffffffffffff1673ffffffffffffffffffffffffffffffffffffffff1681526020019081526020016000206000828254610c349190612652565b925050819055508473ffffffffffffffffffffffffffffffffffffffff16600073ffffffffffffffffffffffffffffffffffffffff168273ffffffffffffffffffffffffffffffffffffffff167fc3d58168c5ae7397731d063d5bbf3d657854427343f4c083240f7aacaa2d0f628787604051610cb2929190612686565b60405180910390a4610cc9816000878787876113b4565b5050505050565b600033905090565b8151835114610d1c576040517f08c379a0000000000000000000000000000000000000000000000000000000008152600401610d1390612721565b60405180910390fd5b600073ffffffffffffffffffffffffffffffffffffffff168473ffffffffffffffffffffffffffffffffffffffff1603610d8b576040517f08c379a0000000000000000000000000000000000000000000000000000000008152600401610d82906127b3565b60405180910390fd5b6000610d95610cd0565b9050610da58187878787876113ac565b60005b8451811015610f56576000858281518110610dc657610dc56122f8565b5b602002602001015190506000858381518110610de557610de46122f8565b5b60200260200101519050600080600084815260200190815260200160002060008b73ffffffffffffffffffffffffffffffffffffffff1673ffffffffffffffffffffffffffffffffffffffff16815260200190815260200160002054905081811015610e86576040517f08c379a0000000000000000000000000000000000000000000000000000000008152600401610e7d90612845565b60405180910390fd5b81810360008085815260200190815260200160002060008c73ffffffffffffffffffffffffffffffffffffffff1673ffffffffffffffffffffffffffffffffffffffff168152602001908152602001600020819055508160008085815260200190815260200160002060008b73ffffffffffffffffffffffffffffffffffffffff1673ffffffffffffffffffffffffffffffffffffffff1681526020019081526020016000206000828254610f3b9190612652565b9250508190555050505080610f4f90612356565b9050610da8565b508473ffffffffffffffffffffffffffffffffffffffff168673ffffffffffffffffffffffffffffffffffffffff168273ffffffffffffffffffffffffffffffffffffffff167f4a39dc06d4c0dbc64b70af90fd698a233a518aa5d07e595d983b8c0526c8f7fb8787604051610fcd929190612865565b60405180910390a4610fe381878787878761158b565b505050505050565b6000600360009054906101000a900473ffffffffffffffffffffffffffffffffffffffff16905081600360006101000a81548173ffffffffffffffffffffffffffffffffffffffff021916908373ffffffffffffffffffffffffffffffffffffffff1602179055508173ffffffffffffffffffffffffffffffffffffffff168173ffffffffffffffffffffffffffffffffffffffff167f8be0079c531659141344cd1fd0a4f28419497f9722a3daafe3b4186f6b6457e060405160405180910390a35050565b600073ffffffffffffffffffffffffffffffffffffffff168473ffffffffffffffffffffffffffffffffffffffff1603611120576040517f08c379a0000000000000000000000000000000000000000000000000000000008152600401611117906127b3565b60405180910390fd5b600061112a610cd0565b905061114a81878761113b88611332565b61114488611332565b876113ac565b600080600086815260200190815260200160002060008873ffffffffffffffffffffffffffffffffffffffff1673ffffffffffffffffffffffffffffffffffffffff168152602001908152602001600020549050838110156111e1576040517f08c379a00000000000000000000000000000000000000000000000000000000081526004016111d890612845565b60405180910390fd5b83810360008087815260200190815260200160002060008973ffffffffffffffffffffffffffffffffffffffff1673ffffffffffffffffffffffffffffffffffffffff168152602001908152602001600020819055508360008087815260200190815260200160002060008873ffffffffffffffffffffffffffffffffffffffff1673ffffffffffffffffffffffffffffffffffffffff16815260200190815260200160002060008282546112969190612652565b925050819055508573ffffffffffffffffffffffffffffffffffffffff168773ffffffffffffffffffffffffffffffffffffffff168373ffffffffffffffffffffffffffffffffffffffff167fc3d58168c5ae7397731d063d5bbf3d657854427343f4c083240f7aacaa2d0f628888604051611313929190612686565b60405180910390a46113298288888888886113b4565b50505050505050565b60606000600167ffffffffffffffff81111561135157611350611a66565b5b60405190808252806020026020018201604052801561137f5781602001602082028036833780820191505090505b5090508281600081518110611397576113966122f8565b5b60200260200101818152505080915050919050565b505050505050565b6113d38473ffffffffffffffffffffffffffffffffffffffff16611762565b15611583578373ffffffffffffffffffffffffffffffffffffffff1663f23a6e6187878686866040518663ffffffff1660e01b81526004016114199594939291906128f1565b6020604051808303816000875af192505050801561145557506040513d601f19601f820116820180604052508101906114529190612960565b60015b6114fa5761146161299a565b806308c379a0036114bd57506114756129bc565b8061148057506114bf565b806040517f08c379a00000000000000000000000000000000000000000000000000000000081526004016114b491906119ff565b60405180910390fd5b505b6040517f08c379a00000000000000000000000000000000000000000000000000000000081526004016114f190612abe565b60405180910390fd5b63f23a6e6160e01b7bffffffffffffffffffffffffffffffffffffffffffffffffffffffff1916817bffffffffffffffffffffffffffffffffffffffffffffffffffffffff191614611581576040517f08c379a000000000000000000000000000000000000000000000000000000000815260040161157890612b50565b60405180910390fd5b505b505050505050565b6115aa8473ffffffffffffffffffffffffffffffffffffffff16611762565b1561175a578373ffffffffffffffffffffffffffffffffffffffff1663bc197c8187878686866040518663ffffffff1660e01b81526004016115f0959493929190612b70565b6020604051808303816000875af192505050801561162c57506040513d601f19601f820116820180604052508101906116299190612960565b60015b6116d15761163861299a565b806308c379a003611694575061164c6129bc565b806116575750611696565b806040517f08c379a000000000000000000000000000000000000000000000000000000000815260040161168b91906119ff565b60405180910390fd5b505b6040517f08c379a00000000000000000000000000000000000000000000000000000000081526004016116c890612abe565b60405180910390fd5b63bc197c8160e01b7bffffffffffffffffffffffffffffffffffffffffffffffffffffffff1916817bffffffffffffffffffffffffffffffffffffffffffffffffffffffff191614611758576040517f08c379a000000000000000000000000000000000000000000000000000000000815260040161174f90612b50565b60405180910390fd5b505b505050505050565b600080823b905060008111915050919050565b6000604051905090565b600080fd5b600080fd5b600073ffffffffffffffffffffffffffffffffffffffff82169050919050565b60006117b482611789565b9050919050565b6117c4816117a9565b81146117cf57600080fd5b50565b6000813590506117e1816117bb565b92915050565b6000819050919050565b6117fa816117e7565b811461180557600080fd5b50565b600081359050611817816117f1565b92915050565b600080604083850312156118345761183361177f565b5b6000611842858286016117d2565b925050602061185385828601611808565b9150509250929050565b611866816117e7565b82525050565b6000602082019050611881600083018461185d565b92915050565b60007fffffffff0000000000000000000000000000000000000000000000000000000082169050919050565b6118bc81611887565b81146118c757600080fd5b50565b6000813590506118d9816118b3565b92915050565b6000602082840312156118f5576118f461177f565b5b6000611903848285016118ca565b91505092915050565b60008115159050919050565b6119218161190c565b82525050565b600060208201905061193c6000830184611918565b92915050565b6000602082840312156119585761195761177f565b5b600061196684828501611808565b91505092915050565b600081519050919050565b600082825260208201905092915050565b60005b838110156119a957808201518184015260208101905061198e565b60008484015250505050565b6000601f19601f8301169050919050565b60006119d18261196f565b6119db818561197a565b93506119eb81856020860161198b565b6119f4816119b5565b840191505092915050565b60006020820190508181036000830152611a1981846119c6565b905092915050565b60008060408385031215611a3857611a3761177f565b5b6000611a4685828601611808565b9250506020611a5785828601611808565b9150509250929050565b600080fd5b7f4e487b7100000000000000000000000000000000000000000000000000000000600052604160045260246000fd5b611a9e826119b5565b810181811067ffffffffffffffff82111715611abd57611abc611a66565b5b80604052505050565b6000611ad0611775565b9050611adc8282611a95565b919050565b600067ffffffffffffffff821115611afc57611afb611a66565b5b602082029050602081019050919050565b600080fd5b6000611b25611b2084611ae1565b611ac6565b90508083825260208201905060208402830185811115611b4857611b47611b0d565b5b835b81811015611b715780611b5d8882611808565b845260208401935050602081019050611b4a565b5050509392505050565b600082601f830112611b9057611b8f611a61565b5b8135611ba0848260208601611b12565b91505092915050565b600080fd5b600067ffffffffffffffff821115611bc957611bc8611a66565b5b611bd2826119b5565b9050602081019050919050565b82818337600083830152505050565b6000611c01611bfc84611bae565b611ac6565b905082815260208101848484011115611c1d57611c1c611ba9565b5b611c28848285611bdf565b509392505050565b600082601f830112611c4557611c44611a61565b5b8135611c55848260208601611bee565b91505092915050565b600080600080600060a08688031215611c7a57611c7961177f565b5b6000611c88888289016117d2565b9550506020611c99888289016117d2565b945050604086013567ffffffffffffffff811115611cba57611cb9611784565b5b611cc688828901611b7b565b935050606086013567ffffffffffffffff811115611ce757611ce6611784565b5b611cf388828901611b7b565b925050608086013567ffffffffffffffff811115611d1457611d13611784565b5b611d2088828901611c30565b9150509295509295909350565b600067ffffffffffffffff821115611d4857611d47611a66565b5b602082029050602081019050919050565b6000611d6c611d6784611d2d565b611ac6565b90508083825260208201905060208402830185811115611d8f57611d8e611b0d565b5b835b81811015611db85780611da488826117d2565b845260208401935050602081019050611d91565b5050509392505050565b600082601f830112611dd757611dd6611a61565b5b8135611de7848260208601611d59565b91505092915050565b60008060408385031215611e0757611e0661177f565b5b600083013567ffffffffffffffff811115611e2557611e24611784565b5b611e3185828601611dc2565b925050602083013567ffffffffffffffff811115611e5257611e51611784565b5b611e5e85828601611b7b565b9150509250929050565b600081519050919050565b600082825260208201905092915050565b6000819050602082019050919050565b611e9d816117e7565b82525050565b6000611eaf8383611e94565b60208301905092915050565b6000602082019050919050565b6000611ed382611e68565b611edd8185611e73565b9350611ee883611e84565b8060005b83811015611f19578151611f008882611ea3565b9750611f0b83611ebb565b925050600181019050611eec565b5085935050505092915050565b60006020820190508181036000830152611f408184611ec8565b905092915050565b611f51816117a9565b82525050565b6000602082019050611f6c6000830184611f48565b92915050565b611f7b8161190c565b8114611f8657600080fd5b50565b600081359050611f9881611f72565b92915050565b60008060408385031215611fb557611fb461177f565b5b6000611fc3858286016117d2565b9250506020611fd485828601611f89565b9150509250929050565b60008060408385031215611ff557611ff461177f565b5b6000612003858286016117d2565b9250506020612014858286016117d2565b9150509250929050565b600080600080600060a0868803121561203a5761203961177f565b5b6000612048888289016117d2565b9550506020612059888289016117d2565b945050604061206a88828901611808565b935050606061207b88828901611808565b925050608086013567ffffffffffffffff81111561209c5761209b611784565b5b6120a888828901611c30565b9150509295509295909350565b6000602082840312156120cb576120ca61177f565b5b60006120d9848285016117d2565b91505092915050565b7f455243313135353a2062616c616e636520717565727920666f7220746865207a60008201527f65726f2061646472657373000000000000000000000000000000000000000000602082015250565b600061213e602b8361197a565b9150612149826120e2565b604082019050919050565b6000602082019050818103600083015261216d81612131565b9050919050565b7f4e487b7100000000000000000000000000000000000000000000000000000000600052602260045260246000fd5b600060028204905060018216806121bb57607f821691505b6020821081036121ce576121cd612174565b5b50919050565b7f455243313135353a207472616e736665722063616c6c6572206973206e6f742060008201527f6f776e6572206e6f7220617070726f7665640000000000000000000000000000602082015250565b600061223060328361197a565b915061223b826121d4565b604082019050919050565b6000602082019050818103600083015261225f81612223565b9050919050565b7f455243313135353a206163636f756e747320616e6420696473206c656e67746860008201527f206d69736d617463680000000000000000000000000000000000000000000000602082015250565b60006122c260298361197a565b91506122cd82612266565b604082019050919050565b600060208201905081810360008301526122f1816122b5565b9050919050565b7f4e487b7100000000000000000000000000000000000000000000000000000000600052603260045260246000fd5b7f4e487b7100000000000000000000000000000000000000000000000000000000600052601160045260246000fd5b6000612361826117e7565b91507fffffffffffffffffffffffffffffffffffffffffffffffffffffffffffffffff820361239357612392612327565b5b600182019050919050565b7f4f776e61626c653a2063616c6c6572206973206e6f7420746865206f776e6572600082015250565b60006123d460208361197a565b91506123df8261239e565b602082019050919050565b60006020820190508181036000830152612403816123c7565b9050919050565b7f455243313135353a2073657474696e6720617070726f76616c2073746174757360008201527f20666f722073656c660000000000000000000000000000000000000000000000602082015250565b600061246660298361197a565b91506124718261240a565b604082019050919050565b6000602082019050818103600083015261249581612459565b9050919050565b7f455243313135353a2063616c6c6572206973206e6f74206f776e6572206e6f7260008201527f20617070726f7665640000000000000000000000000000000000000000000000602082015250565b60006124f860298361197a565b91506125038261249c565b604082019050919050565b60006020820190508181036000830152612527816124eb565b9050919050565b7f4f776e61626c653a206e6577206f776e657220697320746865207a65726f206160008201527f6464726573730000000000000000000000000000000000000000000000000000602082015250565b600061258a60268361197a565b91506125958261252e565b604082019050919050565b600060208201905081810360008301526125b98161257d565b9050919050565b7f455243313135353a206d696e7420746f20746865207a65726f2061646472657360008201527f7300000000000000000000000000000000000000000000000000000000000000602082015250565b600061261c60218361197a565b9150612627826125c0565b604082019050919050565b6000602082019050818103600083015261264b8161260f565b9050919050565b600061265d826117e7565b9150612668836117e7565b92508282019050808211156126805761267f612327565b5b92915050565b600060408201905061269b600083018561185d565b6126a8602083018461185d565b9392505050565b7f455243313135353a2069647320616e6420616d6f756e7473206c656e6774682060008201527f6d69736d61746368000000000000000000000000000000000000000000000000602082015250565b600061270b60288361197a565b9150612716826126af565b604082019050919050565b6000602082019050818103600083015261273a816126fe565b9050919050565b7f455243313135353a207472616e7366657220746f20746865207a65726f20616460008201527f6472657373000000000000000000000000000000000000000000000000000000602082015250565b600061279d60258361197a565b91506127a882612741565b604082019050919050565b600060208201905081810360008301526127cc81612790565b9050919050565b7f455243313135353a20696e73756666696369656e742062616c616e636520666f60008201527f72207472616e7366657200000000000000000000000000000000000000000000602082015250565b600061282f602a8361197a565b915061283a826127d3565b604082019050919050565b6000602082019050818103600083015261285e81612822565b9050919050565b6000604082019050818103600083015261287f8185611ec8565b905081810360208301526128938184611ec8565b90509392505050565b600081519050919050565b600082825260208201905092915050565b60006128c38261289c565b6128cd81856128a7565b93506128dd81856020860161198b565b6128e6816119b5565b840191505092915050565b600060a0820190506129066000830188611f48565b6129136020830187611f48565b612920604083018661185d565b61292d606083018561185d565b818103608083015261293f81846128b8565b90509695505050505050565b60008151905061295a816118b3565b92915050565b6000602082840312156129765761297561177f565b5b60006129848482850161294b565b91505092915050565b60008160e01c9050919050565b600060033d11156129b95760046000803e6129b660005161298d565b90505b90565b600060443d10612a49576129ce611775565b60043d036004823e80513d602482011167ffffffffffffffff821117156129f6575050612a49565b808201805167ffffffffffffffff811115612a145750505050612a49565b80602083010160043d038501811115612a31575050505050612a49565b612a4082602001850186611a95565b82955050505050505b90565b7f455243313135353a207472616e7366657220746f206e6f6e204552433131353560008201527f526563656976657220696d706c656d656e746572000000000000000000000000602082015250565b6000612aa860348361197a565b9150612ab382612a4c565b604082019050919050565b60006020820190508181036000830152612ad781612a9b565b9050919050565b7f455243313135353a204552433131353552656365697665722072656a6563746560008201527f6420746f6b656e73000000000000000000000000000000000000000000000000602082015250565b6000612b3a60288361197a565b9150612b4582612ade565b604082019050919050565b60006020820190508181036000830152612b6981612b2d565b9050919050565b600060a082019050612b856000830188611f48565b612b926020830187611f48565b8181036040830152612ba48186611ec8565b90508181036060830152612bb88185611ec8565b90508181036080830152612bcc81846128b8565b9050969550505050505056fea26469706673582212209c255f6fb5bdf694423de3b8157d278efe1a7aa5f6c0ebc2e6184edb91beac7164736f6c6343000811003368747470733a2f2f6d657461646174612e78797a2f6e66742f7b69647d2e6a736f6e",
  "immutableReferences": {},
  "source": "// SPDX-License-Identifier: MIT\npragma solidity ^0.8.6;\n\nimport \"@openzeppelin/contracts/token/ERC1155/ERC1155.sol\";\nimport \"@openzeppelin/contracts/access/Ownable.sol\";\n\n/**\n * @title Simple1155NFT\n * Simple1155NFT - ERC1155 contract with IPFS support\n */\ncontract Simple1155NFT is ERC1155, Ownable {\n    uint256 nonce = 0;\n\n    constructor()\n        ERC1155(\"https://metadata.xyz/nft/{id}.json\")\n    {}\n\n    function mint(uint256 id, uint256 amount) public {\n        _mint(msg.sender, id, amount, bytes(\"\"));\n    }\n}\n",
  "sourcePath": "/home/turinglabs/GIT/TURINGLABS/erc-1155-ipfs/smartcontract/contracts/Simple1155NFT.sol",
  "compiler": {
    "name": "solc",
    "version": "0.8.17+commit.8df45f5f.Emscripten.clang"
  },
  "schemaVersion": "3.4.3",
  "updatedAt": "2022-09-09T07:53:41.074Z",
  "devdoc": {
    "kind": "dev",
    "methods": {
      "balanceOf(address,uint256)": {
        "details": "See {IERC1155-balanceOf}. Requirements: - `account` cannot be the zero address."
      },
      "balanceOfBatch(address[],uint256[])": {
        "details": "See {IERC1155-balanceOfBatch}. Requirements: - `accounts` and `ids` must have the same length."
      },
      "isApprovedForAll(address,address)": {
        "details": "See {IERC1155-isApprovedForAll}."
      },
      "owner()": {
        "details": "Returns the address of the current owner."
      },
      "renounceOwnership()": {
        "details": "Leaves the contract without owner. It will not be possible to call `onlyOwner` functions anymore. Can only be called by the current owner. NOTE: Renouncing ownership will leave the contract without an owner, thereby removing any functionality that is only available to the owner."
      },
      "safeBatchTransferFrom(address,address,uint256[],uint256[],bytes)": {
        "details": "See {IERC1155-safeBatchTransferFrom}."
      },
      "safeTransferFrom(address,address,uint256,uint256,bytes)": {
        "details": "See {IERC1155-safeTransferFrom}."
      },
      "setApprovalForAll(address,bool)": {
        "details": "See {IERC1155-setApprovalForAll}."
      },
      "supportsInterface(bytes4)": {
        "details": "See {IERC165-supportsInterface}."
      },
      "transferOwnership(address)": {
        "details": "Transfers ownership of the contract to a new account (`newOwner`). Can only be called by the current owner."
      },
      "uri(uint256)": {
        "details": "See {IERC1155MetadataURI-uri}. This implementation returns the same URI for *all* token types. It relies on the token type ID substitution mechanism https://eips.ethereum.org/EIPS/eip-1155#metadata[defined in the EIP]. Clients calling this function must replace the `\\{id\\}` substring with the actual token type ID."
      }
    },
    "title": "Simple1155NFT Simple1155NFT - ERC1155 contract with IPFS support",
    "version": 1
  },
  "userdoc": {
    "kind": "user",
    "methods": {},
    "version": 1
  }
}