{
    "_format": "hh-sol-artifact-1",
    "contractName": "Simple721NFT",
    "sourceName": "contracts/Simple721NFT.sol",
    "abi": [
        {
            "inputs": [
                {
                    "internalType": "string",
                    "name": "_name",
                    "type": "string"
                },
                {
                    "internalType": "string",
                    "name": "_ticker",
                    "type": "string"
                }
            ],
            "stateMutability": "nonpayable",
            "type": "constructor"
        },
        {
            "anonymous": false,
            "inputs": [
                {
                    "indexed": true,
                    "internalType": "address",
                    "name": "owner",
                    "type": "address"
                },
                {
                    "indexed": true,
                    "internalType": "address",
                    "name": "approved",
                    "type": "address"
                },
                {
                    "indexed": true,
                    "internalType": "uint256",
                    "name": "tokenId",
                    "type": "uint256"
                }
            ],
            "name": "Approval",
            "type": "event"
        },
        {
            "anonymous": false,
            "inputs": [
                {
                    "indexed": true,
                    "internalType": "address",
                    "name": "owner",
                    "type": "address"
                },
                {
                    "indexed": true,
                    "internalType": "address",
                    "name": "operator",
                    "type": "address"
                },
                {
                    "indexed": false,
                    "internalType": "bool",
                    "name": "approved",
                    "type": "bool"
                }
            ],
            "name": "ApprovalForAll",
            "type": "event"
        },
        {
            "anonymous": false,
            "inputs": [
                {
                    "indexed": true,
                    "internalType": "uint256",
                    "name": "tokenId",
                    "type": "uint256"
                }
            ],
            "name": "Minted",
            "type": "event"
        },
        {
            "anonymous": false,
            "inputs": [
                {
                    "indexed": true,
                    "internalType": "address",
                    "name": "previousOwner",
                    "type": "address"
                },
                {
                    "indexed": true,
                    "internalType": "address",
                    "name": "newOwner",
                    "type": "address"
                }
            ],
            "name": "OwnershipTransferred",
            "type": "event"
        },
        {
            "anonymous": false,
            "inputs": [
                {
                    "indexed": true,
                    "internalType": "address",
                    "name": "from",
                    "type": "address"
                },
                {
                    "indexed": true,
                    "internalType": "address",
                    "name": "to",
                    "type": "address"
                },
                {
                    "indexed": true,
                    "internalType": "uint256",
                    "name": "tokenId",
                    "type": "uint256"
                }
            ],
            "name": "Transfer",
            "type": "event"
        },
        {
            "inputs": [
                {
                    "internalType": "string",
                    "name": "",
                    "type": "string"
                }
            ],
            "name": "_creatorsMapping",
            "outputs": [
                {
                    "internalType": "address",
                    "name": "",
                    "type": "address"
                }
            ],
            "stateMutability": "view",
            "type": "function"
        },
        {
            "inputs": [
                {
                    "internalType": "uint256",
                    "name": "",
                    "type": "uint256"
                }
            ],
            "name": "_tokenIdsMapping",
            "outputs": [
                {
                    "internalType": "string",
                    "name": "",
                    "type": "string"
                }
            ],
            "stateMutability": "view",
            "type": "function"
        },
        {
            "inputs": [
                {
                    "internalType": "address",
                    "name": "to",
                    "type": "address"
                },
                {
                    "internalType": "uint256",
                    "name": "tokenId",
                    "type": "uint256"
                }
            ],
            "name": "approve",
            "outputs": [],
            "stateMutability": "nonpayable",
            "type": "function"
        },
        {
            "inputs": [
                {
                    "internalType": "address",
                    "name": "owner",
                    "type": "address"
                }
            ],
            "name": "balanceOf",
            "outputs": [
                {
                    "internalType": "uint256",
                    "name": "",
                    "type": "uint256"
                }
            ],
            "stateMutability": "view",
            "type": "function"
        },
        {
            "inputs": [
                {
                    "internalType": "uint256",
                    "name": "_tokenId",
                    "type": "uint256"
                }
            ],
            "name": "burn",
            "outputs": [],
            "stateMutability": "nonpayable",
            "type": "function"
        },
        {
            "inputs": [
                {
                    "internalType": "uint256",
                    "name": "tokenId",
                    "type": "uint256"
                }
            ],
            "name": "getApproved",
            "outputs": [
                {
                    "internalType": "address",
                    "name": "",
                    "type": "address"
                }
            ],
            "stateMutability": "view",
            "type": "function"
        },
        {
            "inputs": [
                {
                    "internalType": "address",
                    "name": "owner",
                    "type": "address"
                },
                {
                    "internalType": "address",
                    "name": "operator",
                    "type": "address"
                }
            ],
            "name": "isApprovedForAll",
            "outputs": [
                {
                    "internalType": "bool",
                    "name": "",
                    "type": "bool"
                }
            ],
            "stateMutability": "view",
            "type": "function"
        },
        {
            "inputs": [
                {
                    "internalType": "string",
                    "name": "_tokenURI",
                    "type": "string"
                }
            ],
            "name": "mint",
            "outputs": [],
            "stateMutability": "nonpayable",
            "type": "function"
        },
        {
            "inputs": [],
            "name": "name",
            "outputs": [
                {
                    "internalType": "string",
                    "name": "",
                    "type": "string"
                }
            ],
            "stateMutability": "view",
            "type": "function"
        },
        {
            "inputs": [
                {
                    "internalType": "string",
                    "name": "tokenHash",
                    "type": "string"
                }
            ],
            "name": "nftExists",
            "outputs": [
                {
                    "internalType": "bool",
                    "name": "",
                    "type": "bool"
                }
            ],
            "stateMutability": "view",
            "type": "function"
        },
        {
            "inputs": [],
            "name": "owner",
            "outputs": [
                {
                    "internalType": "address",
                    "name": "",
                    "type": "address"
                }
            ],
            "stateMutability": "view",
            "type": "function"
        },
        {
            "inputs": [
                {
                    "internalType": "uint256",
                    "name": "tokenId",
                    "type": "uint256"
                }
            ],
            "name": "ownerOf",
            "outputs": [
                {
                    "internalType": "address",
                    "name": "",
                    "type": "address"
                }
            ],
            "stateMutability": "view",
            "type": "function"
        },
        {
            "inputs": [],
            "name": "renounceOwnership",
            "outputs": [],
            "stateMutability": "nonpayable",
            "type": "function"
        },
        {
            "inputs": [
                {
                    "internalType": "address",
                    "name": "from",
                    "type": "address"
                },
                {
                    "internalType": "address",
                    "name": "to",
                    "type": "address"
                },
                {
                    "internalType": "uint256",
                    "name": "tokenId",
                    "type": "uint256"
                }
            ],
            "name": "safeTransferFrom",
            "outputs": [],
            "stateMutability": "nonpayable",
            "type": "function"
        },
        {
            "inputs": [
                {
                    "internalType": "address",
                    "name": "from",
                    "type": "address"
                },
                {
                    "internalType": "address",
                    "name": "to",
                    "type": "address"
                },
                {
                    "internalType": "uint256",
                    "name": "tokenId",
                    "type": "uint256"
                },
                {
                    "internalType": "bytes",
                    "name": "_data",
                    "type": "bytes"
                }
            ],
            "name": "safeTransferFrom",
            "outputs": [],
            "stateMutability": "nonpayable",
            "type": "function"
        },
        {
            "inputs": [
                {
                    "internalType": "address",
                    "name": "operator",
                    "type": "address"
                },
                {
                    "internalType": "bool",
                    "name": "approved",
                    "type": "bool"
                }
            ],
            "name": "setApprovalForAll",
            "outputs": [],
            "stateMutability": "nonpayable",
            "type": "function"
        },
        {
            "inputs": [
                {
                    "internalType": "bytes4",
                    "name": "interfaceId",
                    "type": "bytes4"
                }
            ],
            "name": "supportsInterface",
            "outputs": [
                {
                    "internalType": "bool",
                    "name": "",
                    "type": "bool"
                }
            ],
            "stateMutability": "view",
            "type": "function"
        },
        {
            "inputs": [],
            "name": "symbol",
            "outputs": [
                {
                    "internalType": "string",
                    "name": "",
                    "type": "string"
                }
            ],
            "stateMutability": "view",
            "type": "function"
        },
        {
            "inputs": [
                {
                    "internalType": "uint256",
                    "name": "_tokenId",
                    "type": "uint256"
                }
            ],
            "name": "tokenURI",
            "outputs": [
                {
                    "internalType": "string",
                    "name": "",
                    "type": "string"
                }
            ],
            "stateMutability": "view",
            "type": "function"
        },
        {
            "inputs": [
                {
                    "internalType": "address",
                    "name": "_owner",
                    "type": "address"
                }
            ],
            "name": "tokensOfOwner",
            "outputs": [
                {
                    "internalType": "uint256[]",
                    "name": "ownerTokens",
                    "type": "uint256[]"
                }
            ],
            "stateMutability": "view",
            "type": "function"
        },
        {
            "inputs": [],
            "name": "totalSupply",
            "outputs": [
                {
                    "internalType": "uint256",
                    "name": "",
                    "type": "uint256"
                }
            ],
            "stateMutability": "view",
            "type": "function"
        },
        {
            "inputs": [
                {
                    "internalType": "address",
                    "name": "from",
                    "type": "address"
                },
                {
                    "internalType": "address",
                    "name": "to",
                    "type": "address"
                },
                {
                    "internalType": "uint256",
                    "name": "tokenId",
                    "type": "uint256"
                }
            ],
            "name": "transferFrom",
            "outputs": [],
            "stateMutability": "nonpayable",
            "type": "function"
        },
        {
            "inputs": [
                {
                    "internalType": "address",
                    "name": "newOwner",
                    "type": "address"
                }
            ],
            "name": "transferOwnership",
            "outputs": [],
            "stateMutability": "nonpayable",
            "type": "function"
        }
    ],
    "bytecode": "0x60806040526000600a556040518060400160405280600781526020017f697066733a2f2f00000000000000000000000000000000000000000000000000815250600b908051906020019062000056929190620001b6565b503480156200006457600080fd5b5060405162003e4938038062003e4983398181016040528101906200008a9190620002e4565b81818160009080519060200190620000a4929190620001b6565b508060019080519060200190620000bd929190620001b6565b505050620000e0620000d4620000e860201b60201c565b620000f060201b60201c565b5050620004ed565b600033905090565b6000600760009054906101000a900473ffffffffffffffffffffffffffffffffffffffff16905081600760006101000a81548173ffffffffffffffffffffffffffffffffffffffff021916908373ffffffffffffffffffffffffffffffffffffffff1602179055508173ffffffffffffffffffffffffffffffffffffffff168173ffffffffffffffffffffffffffffffffffffffff167f8be0079c531659141344cd1fd0a4f28419497f9722a3daafe3b4186f6b6457e060405160405180910390a35050565b828054620001c490620003fe565b90600052602060002090601f016020900481019282620001e8576000855562000234565b82601f106200020357805160ff191683800117855562000234565b8280016001018555821562000234579182015b828111156200023357825182559160200191906001019062000216565b5b50905062000243919062000247565b5090565b5b808211156200026257600081600090555060010162000248565b5090565b60006200027d620002778462000392565b62000369565b9050828152602081018484840111156200029c576200029b620004cd565b5b620002a9848285620003c8565b509392505050565b600082601f830112620002c957620002c8620004c8565b5b8151620002db84826020860162000266565b91505092915050565b60008060408385031215620002fe57620002fd620004d7565b5b600083015167ffffffffffffffff8111156200031f576200031e620004d2565b5b6200032d85828601620002b1565b925050602083015167ffffffffffffffff811115620003515762000350620004d2565b5b6200035f85828601620002b1565b9150509250929050565b60006200037562000388565b905062000383828262000434565b919050565b6000604051905090565b600067ffffffffffffffff821115620003b057620003af62000499565b5b620003bb82620004dc565b9050602081019050919050565b60005b83811015620003e8578082015181840152602081019050620003cb565b83811115620003f8576000848401525b50505050565b600060028204905060018216806200041757607f821691505b602082108114156200042e576200042d6200046a565b5b50919050565b6200043f82620004dc565b810181811067ffffffffffffffff8211171562000461576200046062000499565b5b80604052505050565b7f4e487b7100000000000000000000000000000000000000000000000000000000600052602260045260246000fd5b7f4e487b7100000000000000000000000000000000000000000000000000000000600052604160045260246000fd5b600080fd5b600080fd5b600080fd5b600080fd5b6000601f19601f8301169050919050565b61394c80620004fd6000396000f3fe608060405234801561001057600080fd5b506004361061014d5760003560e01c8063715018a6116100c3578063b88d4fde1161007c578063b88d4fde146103b0578063c87b56dd146103cc578063d85d3d27146103fc578063e985e9c514610418578063f2fde38b14610448578063f3ed7e98146104645761014d565b8063715018a6146102ee57806376e26b97146102f85780638462151c146103285780638da5cb5b1461035857806395d89b4114610376578063a22cb465146103945761014d565b806323b872dd1161011557806323b872dd1461020a57806342842e0e1461022657806342966c68146102425780636352211e1461025e57806365c4b8fd1461028e57806370a08231146102be5761014d565b806301ffc9a71461015257806306fdde0314610182578063081812fc146101a0578063095ea7b3146101d057806318160ddd146101ec575b600080fd5b61016c6004803603810190610167919061266e565b610494565b6040516101799190612c13565b60405180910390f35b61018a610576565b6040516101979190612c2e565b60405180910390f35b6101ba60048036038101906101b59190612711565b610608565b6040516101c79190612b8a565b60405180910390f35b6101ea60048036038101906101e5919061262e565b61068d565b005b6101f46107a5565b6040516102019190612ed0565b60405180910390f35b610224600480360381019061021f9190612518565b6107b6565b005b610240600480360381019061023b9190612518565b610816565b005b61025c60048036038101906102579190612711565b610836565b005b61027860048036038101906102739190612711565b610842565b6040516102859190612b8a565b60405180910390f35b6102a860048036038101906102a391906126c8565b6108f4565b6040516102b59190612c13565b60405180910390f35b6102d860048036038101906102d391906124ab565b610971565b6040516102e59190612ed0565b60405180910390f35b6102f6610a29565b005b610312600480360381019061030d9190612711565b610ab1565b60405161031f9190612c2e565b60405180910390f35b610342600480360381019061033d91906124ab565b610b51565b60405161034f9190612bf1565b60405180910390f35b610360610caf565b60405161036d9190612b8a565b60405180910390f35b61037e610cd9565b60405161038b9190612c2e565b60405180910390f35b6103ae60048036038101906103a991906125ee565b610d6b565b005b6103ca60048036038101906103c5919061256b565b610d81565b005b6103e660048036038101906103e19190612711565b610de3565b6040516103f39190612c2e565b60405180910390f35b610416600480360381019061041191906126c8565b610df5565b005b610432600480360381019061042d91906124d8565b610e4c565b60405161043f9190612c13565b60405180910390f35b610462600480360381019061045d91906124ab565b610ee0565b005b61047e600480360381019061047991906126c8565b610fd8565b60405161048b9190612b8a565b60405180910390f35b60007f80ac58cd000000000000000000000000000000000000000000000000000000007bffffffffffffffffffffffffffffffffffffffffffffffffffffffff1916827bffffffffffffffffffffffffffffffffffffffffffffffffffffffff1916148061055f57507f5b5e139f000000000000000000000000000000000000000000000000000000007bffffffffffffffffffffffffffffffffffffffffffffffffffffffff1916827bffffffffffffffffffffffffffffffffffffffffffffffffffffffff1916145b8061056f575061056e82611021565b5b9050919050565b6060600080546105859061315f565b80601f01602080910402602001604051908101604052809291908181526020018280546105b19061315f565b80156105fe5780601f106105d3576101008083540402835291602001916105fe565b820191906000526020600020905b8154815290600101906020018083116105e157829003601f168201915b5050505050905090565b60006106138261108b565b610652576040517f08c379a000000000000000000000000000000000000000000000000000000000815260040161064990612e30565b60405180910390fd5b6004600083815260200190815260200160002060009054906101000a900473ffffffffffffffffffffffffffffffffffffffff169050919050565b600061069882610842565b90508073ffffffffffffffffffffffffffffffffffffffff168373ffffffffffffffffffffffffffffffffffffffff161415610709576040517f08c379a000000000000000000000000000000000000000000000000000000000815260040161070090612e90565b60405180910390fd5b8073ffffffffffffffffffffffffffffffffffffffff166107286110f7565b73ffffffffffffffffffffffffffffffffffffffff1614806107575750610756816107516110f7565b610e4c565b5b610796576040517f08c379a000000000000000000000000000000000000000000000000000000000815260040161078d90612d70565b60405180910390fd5b6107a083836110ff565b505050565b60006107b1600c6111b8565b905090565b6107c76107c16110f7565b826111c6565b610806576040517f08c379a00000000000000000000000000000000000000000000000000000000081526004016107fd90612eb0565b60405180910390fd5b6108118383836112a4565b505050565b61083183838360405180602001604052806000815250610d81565b505050565b61083f8161150b565b50565b6000806002600084815260200190815260200160002060009054906101000a900473ffffffffffffffffffffffffffffffffffffffff169050600073ffffffffffffffffffffffffffffffffffffffff168173ffffffffffffffffffffffffffffffffffffffff1614156108eb576040517f08c379a00000000000000000000000000000000000000000000000000000000081526004016108e290612db0565b60405180910390fd5b80915050919050565b6000806008836040516109079190612b4f565b908152602001604051809103902060009054906101000a900473ffffffffffffffffffffffffffffffffffffffff169050600073ffffffffffffffffffffffffffffffffffffffff168173ffffffffffffffffffffffffffffffffffffffff161415915050919050565b60008073ffffffffffffffffffffffffffffffffffffffff168273ffffffffffffffffffffffffffffffffffffffff1614156109e2576040517f08c379a00000000000000000000000000000000000000000000000000000000081526004016109d990612d90565b60405180910390fd5b600360008373ffffffffffffffffffffffffffffffffffffffff1673ffffffffffffffffffffffffffffffffffffffff168152602001908152602001600020549050919050565b610a316110f7565b73ffffffffffffffffffffffffffffffffffffffff16610a4f610caf565b73ffffffffffffffffffffffffffffffffffffffff1614610aa5576040517f08c379a0000000000000000000000000000000000000000000000000000000008152600401610a9c90612e50565b60405180910390fd5b610aaf6000611517565b565b60096020528060005260406000206000915090508054610ad09061315f565b80601f0160208091040260200160405190810160405280929190818152602001828054610afc9061315f565b8015610b495780601f10610b1e57610100808354040283529160200191610b49565b820191906000526020600020905b815481529060010190602001808311610b2c57829003601f168201915b505050505081565b60606000610b5e83610971565b90506000811415610bbb57600067ffffffffffffffff811115610b8457610b836132f8565b5b604051908082528060200260200182016040528015610bb25781602001602082028036833780820191505090505b50915050610caa565b60008167ffffffffffffffff811115610bd757610bd66132f8565b5b604051908082528060200260200182016040528015610c055781602001602082028036833780820191505090505b5090506000610c126107a5565b9050600080600190505b828111610ca1578673ffffffffffffffffffffffffffffffffffffffff16610c4382610842565b73ffffffffffffffffffffffffffffffffffffffff161415610c8e5780848381518110610c7357610c726132c9565b5b6020026020010181815250508180610c8a906131c2565b9250505b8080610c99906131c2565b915050610c1c565b83955050505050505b919050565b6000600760009054906101000a900473ffffffffffffffffffffffffffffffffffffffff16905090565b606060018054610ce89061315f565b80601f0160208091040260200160405190810160405280929190818152602001828054610d149061315f565b8015610d615780601f10610d3657610100808354040283529160200191610d61565b820191906000526020600020905b815481529060010190602001808311610d4457829003601f168201915b5050505050905090565b610d7d610d766110f7565b83836115dd565b5050565b610d92610d8c6110f7565b836111c6565b610dd1576040517f08c379a0000000000000000000000000000000000000000000000000000000008152600401610dc890612eb0565b60405180910390fd5b610ddd8484848461174a565b50505050565b6060610dee826117a6565b9050919050565b610dfe816108f4565b15610e3e576040517f08c379a0000000000000000000000000000000000000000000000000000000008152600401610e3590612cf0565b60405180910390fd5b610e4833826118f8565b5050565b6000600560008473ffffffffffffffffffffffffffffffffffffffff1673ffffffffffffffffffffffffffffffffffffffff16815260200190815260200160002060008373ffffffffffffffffffffffffffffffffffffffff1673ffffffffffffffffffffffffffffffffffffffff16815260200190815260200160002060009054906101000a900460ff16905092915050565b610ee86110f7565b73ffffffffffffffffffffffffffffffffffffffff16610f06610caf565b73ffffffffffffffffffffffffffffffffffffffff1614610f5c576040517f08c379a0000000000000000000000000000000000000000000000000000000008152600401610f5390612e50565b60405180910390fd5b600073ffffffffffffffffffffffffffffffffffffffff168173ffffffffffffffffffffffffffffffffffffffff161415610fcc576040517f08c379a0000000000000000000000000000000000000000000000000000000008152600401610fc390612c90565b60405180910390fd5b610fd581611517565b50565b6008818051602081018201805184825260208301602085012081835280955050505050506000915054906101000a900473ffffffffffffffffffffffffffffffffffffffff1681565b60007f01ffc9a7000000000000000000000000000000000000000000000000000000007bffffffffffffffffffffffffffffffffffffffffffffffffffffffff1916827bffffffffffffffffffffffffffffffffffffffffffffffffffffffff1916149050919050565b60008073ffffffffffffffffffffffffffffffffffffffff166002600084815260200190815260200160002060009054906101000a900473ffffffffffffffffffffffffffffffffffffffff1673ffffffffffffffffffffffffffffffffffffffff1614159050919050565b600033905090565b816004600083815260200190815260200160002060006101000a81548173ffffffffffffffffffffffffffffffffffffffff021916908373ffffffffffffffffffffffffffffffffffffffff160217905550808273ffffffffffffffffffffffffffffffffffffffff1661117283610842565b73ffffffffffffffffffffffffffffffffffffffff167f8c5be1e5ebec7d5bd14f71427d1e84f3dd0314c0f7b2291e5b200ac8c7c3b92560405160405180910390a45050565b600081600001549050919050565b60006111d18261108b565b611210576040517f08c379a000000000000000000000000000000000000000000000000000000000815260040161120790612d50565b60405180910390fd5b600061121b83610842565b90508073ffffffffffffffffffffffffffffffffffffffff168473ffffffffffffffffffffffffffffffffffffffff16148061128a57508373ffffffffffffffffffffffffffffffffffffffff1661127284610608565b73ffffffffffffffffffffffffffffffffffffffff16145b8061129b575061129a8185610e4c565b5b91505092915050565b8273ffffffffffffffffffffffffffffffffffffffff166112c482610842565b73ffffffffffffffffffffffffffffffffffffffff161461131a576040517f08c379a000000000000000000000000000000000000000000000000000000000815260040161131190612cb0565b60405180910390fd5b600073ffffffffffffffffffffffffffffffffffffffff168273ffffffffffffffffffffffffffffffffffffffff16141561138a576040517f08c379a000000000000000000000000000000000000000000000000000000000815260040161138190612d10565b60405180910390fd5b611395838383611a4d565b6113a06000826110ff565b6001600360008573ffffffffffffffffffffffffffffffffffffffff1673ffffffffffffffffffffffffffffffffffffffff16815260200190815260200160002060008282546113f09190613075565b925050819055506001600360008473ffffffffffffffffffffffffffffffffffffffff1673ffffffffffffffffffffffffffffffffffffffff16815260200190815260200160002060008282546114479190612fee565b92505081905550816002600083815260200190815260200160002060006101000a81548173ffffffffffffffffffffffffffffffffffffffff021916908373ffffffffffffffffffffffffffffffffffffffff160217905550808273ffffffffffffffffffffffffffffffffffffffff168473ffffffffffffffffffffffffffffffffffffffff167fddf252ad1be2c89b69c2b068fc378daa952ba7f163c4a11628f55a4df523b3ef60405160405180910390a4611506838383611a52565b505050565b61151481611a57565b50565b6000600760009054906101000a900473ffffffffffffffffffffffffffffffffffffffff16905081600760006101000a81548173ffffffffffffffffffffffffffffffffffffffff021916908373ffffffffffffffffffffffffffffffffffffffff1602179055508173ffffffffffffffffffffffffffffffffffffffff168173ffffffffffffffffffffffffffffffffffffffff167f8be0079c531659141344cd1fd0a4f28419497f9722a3daafe3b4186f6b6457e060405160405180910390a35050565b8173ffffffffffffffffffffffffffffffffffffffff168373ffffffffffffffffffffffffffffffffffffffff16141561164c576040517f08c379a000000000000000000000000000000000000000000000000000000000815260040161164390612d30565b60405180910390fd5b80600560008573ffffffffffffffffffffffffffffffffffffffff1673ffffffffffffffffffffffffffffffffffffffff16815260200190815260200160002060008473ffffffffffffffffffffffffffffffffffffffff1673ffffffffffffffffffffffffffffffffffffffff16815260200190815260200160002060006101000a81548160ff0219169083151502179055508173ffffffffffffffffffffffffffffffffffffffff168373ffffffffffffffffffffffffffffffffffffffff167f17307eab39ab6107e8899845ad3d59bd9653f200f220920489ca2b5937696c318360405161173d9190612c13565b60405180910390a3505050565b6117558484846112a4565b61176184848484611aaa565b6117a0576040517f08c379a000000000000000000000000000000000000000000000000000000000815260040161179790612c70565b60405180910390fd5b50505050565b60606117b18261108b565b6117f0576040517f08c379a00000000000000000000000000000000000000000000000000000000081526004016117e790612e10565b60405180910390fd5b60006006600084815260200190815260200160002080546118109061315f565b80601f016020809104026020016040519081016040528092919081815260200182805461183c9061315f565b80156118895780601f1061185e57610100808354040283529160200191611889565b820191906000526020600020905b81548152906001019060200180831161186c57829003601f168201915b50505050509050600061189a611c41565b90506000815114156118b05781925050506118f3565b6000825111156118e55780826040516020016118cd929190612b66565b604051602081830303815290604052925050506118f3565b6118ee84611cd3565b925050505b919050565b600080600a5411156119655760006001611912600c6111b8565b61191c9190612fee565b9050600a54811115611963576040517f08c379a000000000000000000000000000000000000000000000000000000000815260040161195a90612c50565b60405180910390fd5b505b61196f600c611d7a565b600061197b600c6111b8565b90506119878482611d90565b6119918184611f6a565b836008846040516119a29190612b4f565b908152602001604051809103902060006101000a81548173ffffffffffffffffffffffffffffffffffffffff021916908373ffffffffffffffffffffffffffffffffffffffff16021790555082600960008381526020019081526020016000209080519060200190611a1592919061227f565b50807f176b02bb2d12439ff7a20b59f402cca16c76f50508b13ef3166a600eb719354a60405160405180910390a28091505092915050565b505050565b505050565b611a6081611fde565b6000600660008381526020019081526020016000208054611a809061315f565b905014611aa757600660008281526020019081526020016000206000611aa69190612305565b5b50565b6000611acb8473ffffffffffffffffffffffffffffffffffffffff166120fb565b15611c34578373ffffffffffffffffffffffffffffffffffffffff1663150b7a02611af46110f7565b8786866040518563ffffffff1660e01b8152600401611b169493929190612ba5565b602060405180830381600087803b158015611b3057600080fd5b505af1925050508015611b6157506040513d601f19601f82011682018060405250810190611b5e919061269b565b60015b611be4573d8060008114611b91576040519150601f19603f3d011682016040523d82523d6000602084013e611b96565b606091505b50600081511415611bdc576040517f08c379a0000000000000000000000000000000000000000000000000000000008152600401611bd390612c70565b60405180910390fd5b805181602001fd5b63150b7a0260e01b7bffffffffffffffffffffffffffffffffffffffffffffffffffffffff1916817bffffffffffffffffffffffffffffffffffffffffffffffffffffffff191614915050611c39565b600190505b949350505050565b6060600b8054611c509061315f565b80601f0160208091040260200160405190810160405280929190818152602001828054611c7c9061315f565b8015611cc95780601f10611c9e57610100808354040283529160200191611cc9565b820191906000526020600020905b815481529060010190602001808311611cac57829003601f168201915b5050505050905090565b6060611cde8261108b565b611d1d576040517f08c379a0000000000000000000000000000000000000000000000000000000008152600401611d1490612e70565b60405180910390fd5b6000611d27611c41565b90506000815111611d475760405180602001604052806000815250611d72565b80611d518461211e565b604051602001611d62929190612b66565b6040516020818303038152906040525b915050919050565b6001816000016000828254019250508190555050565b600073ffffffffffffffffffffffffffffffffffffffff168273ffffffffffffffffffffffffffffffffffffffff161415611e00576040517f08c379a0000000000000000000000000000000000000000000000000000000008152600401611df790612df0565b60405180910390fd5b611e098161108b565b15611e49576040517f08c379a0000000000000000000000000000000000000000000000000000000008152600401611e4090612cd0565b60405180910390fd5b611e5560008383611a4d565b6001600360008473ffffffffffffffffffffffffffffffffffffffff1673ffffffffffffffffffffffffffffffffffffffff1681526020019081526020016000206000828254611ea59190612fee565b92505081905550816002600083815260200190815260200160002060006101000a81548173ffffffffffffffffffffffffffffffffffffffff021916908373ffffffffffffffffffffffffffffffffffffffff160217905550808273ffffffffffffffffffffffffffffffffffffffff16600073ffffffffffffffffffffffffffffffffffffffff167fddf252ad1be2c89b69c2b068fc378daa952ba7f163c4a11628f55a4df523b3ef60405160405180910390a4611f6660008383611a52565b5050565b611f738261108b565b611fb2576040517f08c379a0000000000000000000000000000000000000000000000000000000008152600401611fa990612dd0565b60405180910390fd5b80600660008481526020019081526020016000209080519060200190611fd992919061227f565b505050565b6000611fe982610842565b9050611ff781600084611a4d565b6120026000836110ff565b6001600360008373ffffffffffffffffffffffffffffffffffffffff1673ffffffffffffffffffffffffffffffffffffffff16815260200190815260200160002060008282546120529190613075565b925050819055506002600083815260200190815260200160002060006101000a81549073ffffffffffffffffffffffffffffffffffffffff021916905581600073ffffffffffffffffffffffffffffffffffffffff168273ffffffffffffffffffffffffffffffffffffffff167fddf252ad1be2c89b69c2b068fc378daa952ba7f163c4a11628f55a4df523b3ef60405160405180910390a46120f781600084611a52565b5050565b6000808273ffffffffffffffffffffffffffffffffffffffff163b119050919050565b60606000821415612166576040518060400160405280600181526020017f3000000000000000000000000000000000000000000000000000000000000000815250905061227a565b600082905060005b60008214612198578080612181906131c2565b915050600a826121919190613044565b915061216e565b60008167ffffffffffffffff8111156121b4576121b36132f8565b5b6040519080825280601f01601f1916602001820160405280156121e65781602001600182028036833780820191505090505b5090505b60008514612273576001826121ff9190613075565b9150600a8561220e919061320b565b603061221a9190612fee565b60f81b8183815181106122305761222f6132c9565b5b60200101907effffffffffffffffffffffffffffffffffffffffffffffffffffffffffffff1916908160001a905350600a8561226c9190613044565b94506121ea565b8093505050505b919050565b82805461228b9061315f565b90600052602060002090601f0160209004810192826122ad57600085556122f4565b82601f106122c657805160ff19168380011785556122f4565b828001600101855582156122f4579182015b828111156122f35782518255916020019190600101906122d8565b5b5090506123019190612345565b5090565b5080546123119061315f565b6000825580601f106123235750612342565b601f0160209004906000526020600020908101906123419190612345565b5b50565b5b8082111561235e576000816000905550600101612346565b5090565b600061237561237084612f10565b612eeb565b9050828152602081018484840111156123915761239061332c565b5b61239c84828561311d565b509392505050565b60006123b76123b284612f41565b612eeb565b9050828152602081018484840111156123d3576123d261332c565b5b6123de84828561311d565b509392505050565b6000813590506123f5816138ba565b92915050565b60008135905061240a816138d1565b92915050565b60008135905061241f816138e8565b92915050565b600081519050612434816138e8565b92915050565b600082601f83011261244f5761244e613327565b5b813561245f848260208601612362565b91505092915050565b600082601f83011261247d5761247c613327565b5b813561248d8482602086016123a4565b91505092915050565b6000813590506124a5816138ff565b92915050565b6000602082840312156124c1576124c0613336565b5b60006124cf848285016123e6565b91505092915050565b600080604083850312156124ef576124ee613336565b5b60006124fd858286016123e6565b925050602061250e858286016123e6565b9150509250929050565b60008060006060848603121561253157612530613336565b5b600061253f868287016123e6565b9350506020612550868287016123e6565b925050604061256186828701612496565b9150509250925092565b6000806000806080858703121561258557612584613336565b5b6000612593878288016123e6565b94505060206125a4878288016123e6565b93505060406125b587828801612496565b925050606085013567ffffffffffffffff8111156125d6576125d5613331565b5b6125e28782880161243a565b91505092959194509250565b6000806040838503121561260557612604613336565b5b6000612613858286016123e6565b9250506020612624858286016123fb565b9150509250929050565b6000806040838503121561264557612644613336565b5b6000612653858286016123e6565b925050602061266485828601612496565b9150509250929050565b60006020828403121561268457612683613336565b5b600061269284828501612410565b91505092915050565b6000602082840312156126b1576126b0613336565b5b60006126bf84828501612425565b91505092915050565b6000602082840312156126de576126dd613336565b5b600082013567ffffffffffffffff8111156126fc576126fb613331565b5b61270884828501612468565b91505092915050565b60006020828403121561272757612726613336565b5b600061273584828501612496565b91505092915050565b600061274a8383612b31565b60208301905092915050565b61275f816130a9565b82525050565b600061277082612f82565b61277a8185612fb0565b935061278583612f72565b8060005b838110156127b657815161279d888261273e565b97506127a883612fa3565b925050600181019050612789565b5085935050505092915050565b6127cc816130bb565b82525050565b60006127dd82612f8d565b6127e78185612fc1565b93506127f781856020860161312c565b6128008161333b565b840191505092915050565b600061281682612f98565b6128208185612fd2565b935061283081856020860161312c565b6128398161333b565b840191505092915050565b600061284f82612f98565b6128598185612fe3565b935061286981856020860161312c565b80840191505092915050565b6000612882601b83612fd2565b915061288d8261334c565b602082019050919050565b60006128a5603283612fd2565b91506128b082613375565b604082019050919050565b60006128c8602683612fd2565b91506128d3826133c4565b604082019050919050565b60006128eb602583612fd2565b91506128f682613413565b604082019050919050565b600061290e601c83612fd2565b915061291982613462565b602082019050919050565b6000612931602683612fd2565b915061293c8261348b565b604082019050919050565b6000612954602483612fd2565b915061295f826134da565b604082019050919050565b6000612977601983612fd2565b915061298282613529565b602082019050919050565b600061299a602c83612fd2565b91506129a582613552565b604082019050919050565b60006129bd603883612fd2565b91506129c8826135a1565b604082019050919050565b60006129e0602a83612fd2565b91506129eb826135f0565b604082019050919050565b6000612a03602983612fd2565b9150612a0e8261363f565b604082019050919050565b6000612a26602e83612fd2565b9150612a318261368e565b604082019050919050565b6000612a49602083612fd2565b9150612a54826136dd565b602082019050919050565b6000612a6c603183612fd2565b9150612a7782613706565b604082019050919050565b6000612a8f602c83612fd2565b9150612a9a82613755565b604082019050919050565b6000612ab2602083612fd2565b9150612abd826137a4565b602082019050919050565b6000612ad5602f83612fd2565b9150612ae0826137cd565b604082019050919050565b6000612af8602183612fd2565b9150612b038261381c565b604082019050919050565b6000612b1b603183612fd2565b9150612b268261386b565b604082019050919050565b612b3a81613113565b82525050565b612b4981613113565b82525050565b6000612b5b8284612844565b915081905092915050565b6000612b728285612844565b9150612b7e8284612844565b91508190509392505050565b6000602082019050612b9f6000830184612756565b92915050565b6000608082019050612bba6000830187612756565b612bc76020830186612756565b612bd46040830185612b40565b8181036060830152612be681846127d2565b905095945050505050565b60006020820190508181036000830152612c0b8184612765565b905092915050565b6000602082019050612c2860008301846127c3565b92915050565b60006020820190508181036000830152612c48818461280b565b905092915050565b60006020820190508181036000830152612c6981612875565b9050919050565b60006020820190508181036000830152612c8981612898565b9050919050565b60006020820190508181036000830152612ca9816128bb565b9050919050565b60006020820190508181036000830152612cc9816128de565b9050919050565b60006020820190508181036000830152612ce981612901565b9050919050565b60006020820190508181036000830152612d0981612924565b9050919050565b60006020820190508181036000830152612d2981612947565b9050919050565b60006020820190508181036000830152612d498161296a565b9050919050565b60006020820190508181036000830152612d698161298d565b9050919050565b60006020820190508181036000830152612d89816129b0565b9050919050565b60006020820190508181036000830152612da9816129d3565b9050919050565b60006020820190508181036000830152612dc9816129f6565b9050919050565b60006020820190508181036000830152612de981612a19565b9050919050565b60006020820190508181036000830152612e0981612a3c565b9050919050565b60006020820190508181036000830152612e2981612a5f565b9050919050565b60006020820190508181036000830152612e4981612a82565b9050919050565b60006020820190508181036000830152612e6981612aa5565b9050919050565b60006020820190508181036000830152612e8981612ac8565b9050919050565b60006020820190508181036000830152612ea981612aeb565b9050919050565b60006020820190508181036000830152612ec981612b0e565b9050919050565b6000602082019050612ee56000830184612b40565b92915050565b6000612ef5612f06565b9050612f018282613191565b919050565b6000604051905090565b600067ffffffffffffffff821115612f2b57612f2a6132f8565b5b612f348261333b565b9050602081019050919050565b600067ffffffffffffffff821115612f5c57612f5b6132f8565b5b612f658261333b565b9050602081019050919050565b6000819050602082019050919050565b600081519050919050565b600081519050919050565b600081519050919050565b6000602082019050919050565b600082825260208201905092915050565b600082825260208201905092915050565b600082825260208201905092915050565b600081905092915050565b6000612ff982613113565b915061300483613113565b9250827fffffffffffffffffffffffffffffffffffffffffffffffffffffffffffffffff038211156130395761303861323c565b5b828201905092915050565b600061304f82613113565b915061305a83613113565b92508261306a5761306961326b565b5b828204905092915050565b600061308082613113565b915061308b83613113565b92508282101561309e5761309d61323c565b5b828203905092915050565b60006130b4826130f3565b9050919050565b60008115159050919050565b60007fffffffff0000000000000000000000000000000000000000000000000000000082169050919050565b600073ffffffffffffffffffffffffffffffffffffffff82169050919050565b6000819050919050565b82818337600083830152505050565b60005b8381101561314a57808201518184015260208101905061312f565b83811115613159576000848401525b50505050565b6000600282049050600182168061317757607f821691505b6020821081141561318b5761318a61329a565b5b50919050565b61319a8261333b565b810181811067ffffffffffffffff821117156131b9576131b86132f8565b5b80604052505050565b60006131cd82613113565b91507fffffffffffffffffffffffffffffffffffffffffffffffffffffffffffffffff821415613200576131ff61323c565b5b600182019050919050565b600061321682613113565b915061322183613113565b9250826132315761323061326b565b5b828206905092915050565b7f4e487b7100000000000000000000000000000000000000000000000000000000600052601160045260246000fd5b7f4e487b7100000000000000000000000000000000000000000000000000000000600052601260045260246000fd5b7f4e487b7100000000000000000000000000000000000000000000000000000000600052602260045260246000fd5b7f4e487b7100000000000000000000000000000000000000000000000000000000600052603260045260246000fd5b7f4e487b7100000000000000000000000000000000000000000000000000000000600052604160045260246000fd5b600080fd5b600080fd5b600080fd5b600080fd5b6000601f19601f8301169050919050565b7f53696d706c654e46543a20486172642063617020726561636865640000000000600082015250565b7f4552433732313a207472616e7366657220746f206e6f6e20455243373231526560008201527f63656976657220696d706c656d656e7465720000000000000000000000000000602082015250565b7f4f776e61626c653a206e6577206f776e657220697320746865207a65726f206160008201527f6464726573730000000000000000000000000000000000000000000000000000602082015250565b7f4552433732313a207472616e736665722066726f6d20696e636f72726563742060008201527f6f776e6572000000000000000000000000000000000000000000000000000000602082015250565b7f4552433732313a20746f6b656e20616c7265616479206d696e74656400000000600082015250565b7f53696d706c654e46543a20547279696e6720746f206d696e742065786973746560008201527f6e74206e66740000000000000000000000000000000000000000000000000000602082015250565b7f4552433732313a207472616e7366657220746f20746865207a65726f2061646460008201527f7265737300000000000000000000000000000000000000000000000000000000602082015250565b7f4552433732313a20617070726f766520746f2063616c6c657200000000000000600082015250565b7f4552433732313a206f70657261746f7220717565727920666f72206e6f6e657860008201527f697374656e7420746f6b656e0000000000000000000000000000000000000000602082015250565b7f4552433732313a20617070726f76652063616c6c6572206973206e6f74206f7760008201527f6e6572206e6f7220617070726f76656420666f7220616c6c0000000000000000602082015250565b7f4552433732313a2062616c616e636520717565727920666f7220746865207a6560008201527f726f206164647265737300000000000000000000000000000000000000000000602082015250565b7f4552433732313a206f776e657220717565727920666f72206e6f6e657869737460008201527f656e7420746f6b656e0000000000000000000000000000000000000000000000602082015250565b7f45524337323155524953746f726167653a2055524920736574206f66206e6f6e60008201527f6578697374656e7420746f6b656e000000000000000000000000000000000000602082015250565b7f4552433732313a206d696e7420746f20746865207a65726f2061646472657373600082015250565b7f45524337323155524953746f726167653a2055524920717565727920666f722060008201527f6e6f6e6578697374656e7420746f6b656e000000000000000000000000000000602082015250565b7f4552433732313a20617070726f76656420717565727920666f72206e6f6e657860008201527f697374656e7420746f6b656e0000000000000000000000000000000000000000602082015250565b7f4f776e61626c653a2063616c6c6572206973206e6f7420746865206f776e6572600082015250565b7f4552433732314d657461646174613a2055524920717565727920666f72206e6f60008201527f6e6578697374656e7420746f6b656e0000000000000000000000000000000000602082015250565b7f4552433732313a20617070726f76616c20746f2063757272656e74206f776e6560008201527f7200000000000000000000000000000000000000000000000000000000000000602082015250565b7f4552433732313a207472616e736665722063616c6c6572206973206e6f74206f60008201527f776e6572206e6f7220617070726f766564000000000000000000000000000000602082015250565b6138c3816130a9565b81146138ce57600080fd5b50565b6138da816130bb565b81146138e557600080fd5b50565b6138f1816130c7565b81146138fc57600080fd5b50565b61390881613113565b811461391357600080fd5b5056fea2646970667358221220ded673df9d7d0faa6900db3f02eecbc85013dd69766d54d8d5836e6ac306e73764736f6c63430008060033",
    "linkReferences": {},
    "deployedLinkReferences": {}
}